S011000051414D44656347656E2E737265630E
S11300000C941C010C9446010C9446010C9446017A
S11300100C9446010C9446010C94092D0C94472D24
S11300200C94CF290C940D2A0C9446010C9446018F
S11300300C9446010C9446010C94A80A0C944601B5
S11300400C9446010C9446010C9446010C94460110
S11300500C9446010C9446010C9446010C94460100
S11300600C9446010C9446010C9446010C944601F0
S11300700C9446010C9446010C9446010C944601E0
S11300800C9446010C9446010C9446010C944601D0
S11300900C9446010C9446010C9446010C944601C0
S11300A00C9446010C9446010C9446010C944601B0
S11300B00C9446010C9446010C9446010C944601A0
S11300C00C9446010C9446010C9446010C94460190
S11300D00C9446010C9446010C9446010C94460180
S11300E00C9446010C9446010C9446010C94460170
S11300F00C9446010C9446010C9446010C94460160
S11301000C9446010C9446010C9446010C9446014F
S11301100C9446010C9446010C9446010C9446013F
S11301200C9446010C9446010C9446010C9446012F
S11301300C9446010C9446010C9446010C9446011F
S11301400C9446010C9446010C9446010C9446010F
S11301500C9446010C9446010C9446010C944601FF
S11301600C9446010C9446010C9446010C944601EF
S11301700C9446010C9446010C9446010C944601DF
S11301800C9446010C9446010C9446010C944601CF
S11301900C9446010C9446010C9446010C944601BF
S11301A00C9446010C9446010C9446010C944601AF
S11301B00C94261F0C9446010C9446010C944601A1
S11301C00C9446010C9446010C9446010C9446018F
S11301D00C9446010C9446010C9446010C9446017F
S11301E00C9446010C9446010C9446010C9446016F
S11301F00C9446010C9446010C9446015E1C5E1C52
S11302005E1CE51CB11CDF1C5E1C5E1CE51CB11CE5
S11302100C945E1C0C9486050C94401A0C941E2CB1
S11302200C9499170C94E51C0C94DF1C0C94B921C4
S11302300C94B11C0C94102911241FBECFEFCDBF18
S1130240DFE3DEBF00E00CBFE3EAFCE38AEA90E40C
S11302508193E030F907E0F3000011E2A0E0B0E29E
S1130260ECEEFAE600E00BBF02C007900D92A63F49
S1130270B107D9F72CE3A6EFB1E201C01D92A33A6E
S1130280B207E1F70E94901E0C9474350C940000A0
S11302900F93CF93DF9300D000D0CDB7DEB78C831C
S11302A09D836E838FE390E0FC0180818B83F894BF
S11302B08C819D8189839A838BE390E0FC01108279
S11302C089819A812E81FC0108ED04BF20838FE38C
S11302D090E02B81FC01208300002696CDBFDEBF79
S11302E0DF91CF910F910895CF93DF9300D0CDB7D5
S11302F0DEB789836A834B8380E590E02A812223D9
S113030011F020E201C020E03981322B2B81232B14
S1130310FC01228300002396CDBFDEBFDF91CF9185
S11303200895CF93DF931F921F92CDB7DEB78983D1
S11303306A838A818F718A8380E590E039812A817A
S1130340232BFC01258300000F900F90DF91CF91A8
S11303500895CF93DF931F921F92CDB7DEB78A83A0
S113036080E590E020E530E0F9012081322F2A81F8
S113037020952323FC01208380E590E0FC019081FB
S11303808A818923898389810F900F90DF91CF918E
S11303900895CF93DF9300D0CDB7DEB78A836B8304
S11303A09A818B81892B8983698181E490E00E9401
S11303B0480100002396CDBFDEBFDF91CF910895A1
S11303C0CF93DF931F921F92CDB7DEB78A8380E469
S11303D090E0FC018081982F987F8A81892B898302
S11303E0698180E490E00E94480180E490E0FC018F
S11303F090818A818923898389810F900F90DF916D
S1130400CF910895CF93DF9300D0CDB7DEB7898322
S11304109A836B8389819A81FC018081982F907FD4
S11304208B81892B282F89819A81FC0120830000EC
S11304302396CDBFDEBFDF91CF910895CF93DF9395
S113044000D0CDB7DEB789839A836B8389819A8183
S1130450FC018081982F907F8B81892B282F8981A3
S11304609A81FC01208300002396CDBFDEBFDF917B
S1130470CF910895CF93DF9300D0CDB7DEB78983B2
S11304809A836B8389819A81FC018181982F987F5B
S11304908B81892B282F89819A81FC01218300007B
S11304A02396CDBFDEBFDF91CF910895CF93DF9325
S11304B000D0CDB7DEB789839A836B8389819A8113
S11304C0FC018181982F987F8B81892B282F89812A
S11304D09A81FC01218300002396CDBFDEBFDF910A
S11304E0CF910895CF93DF9300D0CDB7DEB7898342
S11304F09A836B8389819A81FC018681982F9C7FE2
S11305008B81892B282F89819A81FC012683000005
S11305102396CDBFDEBFDF91CF910895CF93DF93B4
S113052000D01F92CDB7DEB789839A836B837C8317
S11305308BE20E94A20200002496CDBFDEBFDF91B1
S1130540CF910895CF93DF931F921F92CDB7DEB75B
S11305508A838A818B3219F481E089830EC08A816F
S11305608C3219F482E0898308C08A818F3219F4AD
S113057083E0898302C084E089830E94C50200006D
S11305800F900F90DF91CF910895CF93DF93CDB764
S1130590DEB7000084E390E028EDFC01208388E7C7
S11305A090E021E0FC0121830000DF91CF910895C8
S11305B0CF93DF931F921F92CDB7DEB780E190E017
S11305C00E94150689839A8389819A81892B61F017
S11305D089819A81FC01108211821282138289819D
S11305E09A8104960E94670689819A810F900F90E0
S11305F0DF91CF910895CF92DF92EF92FF920F9304
S11306001F93CF93DF93CDB7DEB76D97CDBFDEBF1A
S11306108A8B9B8B4C8B5D8B6E8B7F8B288F098F8A
S1130620CA8EDB8EEC8EFD8E8A899B8989879A8798
S11306301D821E821F8218861B860E94B212898523
S11306409A85FC0180819181A281B3818C879D87E9
S1130650AE87BF872C893D894E895F898C859D85AE
S1130660AE85BF85098DBC01CD010E94A405888B90
S11306708889882359F18C859D85AE85BF858983BA
S11306809A83AB83BC831A8E1B8E1C8E1D8E888D21
S1130690882309F465C089859A85FC01208131810C
S11306A0428153818C899D89AE89BF8980959095BB
S11306B0A095B09582239323A423B52329853A8555
S11306C0F90180839183A283B3834AC08A8D9B8D71
S11306D0AC8DBD8D892B8A2B8B2B59F48C859D85F4
S11306E0AE85BF8589839A83AB83BC8381E08B8786
S11306F037C0888D882349F08D819E81AF81B8856C
S1130700B1608D839E83AF83B887898D882349F038
S11307108D819E81AF81B885B4608D839E83AF83C4
S1130720B8872C893D894E895F898D819E81AF81EF
S1130730B885822B932BA42BB52B29853A85F901F7
S113074034962A8D3B8D4C8D5D8D89019A01AC01C7
S1130750BD01CF010E94851519821A821B821C8259
S11307600E94BF12898B8A8D9B8DAC8DBD8D892B88
S11307708A2B8B2B09F465C08989882311F40E9484
S1130780FE090E944318DC01CB0189839A83AB8361
S1130790BC8389819A81AB81BC8188279927AA2748
S11307A0B270892B8A2B8B2B09F042C0F091A200E6
S11307B0FF93F87FF093A20089859A85FC018081DC
S11307C09181A281B38189839A83AB83BC832C8971
S11307D03D894E895F8989819A81AB81BC81098D6C
S11307E0BC01CD010E94A4058823E9F0888D8823EB
S11307F0D1F089859A85FC01208131814281538120
S11308008C899D89AE89BF8980959095A095B09576
S113081082239323A423B52329853A85F901808370
S11308209183A283B38381E08B87FF91F093A2002D
S113083089819A81AB81BC81BB2789839A83AB83ED
S1130840BC8389819A81AB81BC81BC01CD016D9649
S1130850CDBFDEBFDF91CF911F910F91FF90EF903D
S1130860DF90CF900895CF93DF93CDB7DEB72C9769
S1130870CDBFDEBF8F83988749875A876B877C8774
S11308808F81988589839A83F091A200FF93F87FE2
S1130890F093A20089819A81FC0180819181A281D7
S11308A0B3818B839C83AD83BE8389819A81FC0150
S11308B0208131814281538189859A85AB85BC85AC
S11308C080959095A095B09582239323A423B52376
S11308D029813A81F90180839183A283B383FF91B3
S11308E0F093A2008B819C81AD81BE81BC01CD01BE
S11308F02C96CDBFDEBFDF91CF910895CF93DF93C8
S1130900CDB7DEB76D97CDBFDEBF888F998F4A8F85
S11309105B8F6C8F7D8F1B821C821D821E82888D53
S1130920998D888799871F828885998504968A87F7
S11309309B878A859B8503968C879D870E94B2122C
S11309408A859B85FC018781908589839A83888524
S11309509985FC0120813181428153818A8D9B8D4F
S1130960AC8DBD8D822B932BA42BB52B288539857B
S1130970F90180839183A283B38395C089819A818D
S1130980FC01848195818E879F8789819A81FC01EE
S113099080819181A281B381888B998BAA8BBB8B37
S11309A01F8288899989AA89BB8988279927AA27B8
S11309B08C8B9D8BAE8BBF8B88899989AA89BB89C7
S11309C0BB27888B998BAA8BBB8B8C899D89AE891D
S11309D0BF8988279927AA27B470892B8A2B8B2B48
S11309E0B1F488859985FC0120813181428153814C
S11309F088899989AA89BB8982239323A423B5234F
S1130A00892B8A2B8B2BE9F081E08F831AC0888590
S1130A109985FC012081318142815381888999899A
S1130A20AA89BB89282339234A235B238889998986
S1130A30AA89BB89281739074A075B0711F481E0A3
S1130A408F838F81882359F18C899D89AE89BF89D1
S1130A5088279927AA27B170892B8A2B8B2B81F0A1
S1130A602B813C814D815E8188899989AA89BB89C2
S1130A70822B932BA42BB52B8B839C83AD83BE83BA
S1130A8088859985FC0180819181A281B381B260BE
S1130A9029813A81AC01BD01C9010E9460168E858D
S1130AA09F8589839A8329813A818C859D8528171E
S1130AB0390709F063CF88859985FC01208131814C
S1130AC0428153818B819C81AD81BE8180959095BB
S1130AD0A095B09582239323A423B5232885398533
S1130AE0F90180839183A283B3830E94BF12888516
S1130AF09985FC0180819181A281B381BC01CD01E2
S1130B006D96CDBFDEBFDF91CF910895CF93DF9374
S1130B1000D000D0CDB7DEB789839A834B835C8342
S1130B206D837E838B819C81AD81BE8129813A81D5
S1130B30AC01BD01C9010E947E0400002696CDBF10
S1130B40DEBFDF91CF9108950F93CF93DF93CDB79D
S1130B50DEB72A97CDBFDEBF6A837B838C839D83F8
S1130B602E833F83488759870A8719828A85882379
S1130B7099F42A813B814C815D818E819F81A88576
S1130B80B98582239323A423B523892B8A2B8B2B0A
S1130B90D1F081E0898317C02A813B814C815D813A
S1130BA08E819F81A885B985282339234A235B2315
S1130BB08E819F81A885B985281739074A075B0765
S1130BC011F481E0898389812A96CDBFDEBFDF914C
S1130BD0CF910F9108950F931F93CF93DF93CDB7C8
S1130BE0DEB72997CDBFDEBF8A839B834C835D83A9
S1130BF06E837F8328873987288539858C819D81F9
S1130C00AE81BF816A817B8189019C01AD0186E847
S1130C1095E00E94EF1D898389812996CDBFDEBFAF
S1130C20DF91CF911F910F910895CF93DF9300D05F
S1130C301F92CDB7DEB78B839C8319821A820E94E0
S1130C40B21220916639309167398B819C81820F71
S1130C50931F8037974118F5209166393091673991
S1130C608B819C81280F391F809166399091673957
S1130C7082179307A0F480916639909167398A505E
S1130C809E4D89839A8320916639309167398B818F
S1130C909C81820F931F80936639909367390E94D9
S1130CA0BF1289819A812496CDBFDEBFDF91CF9197
S1130CB00895CF93DF931F921F92CDB7DEB7898338
S1130CC09A8300000F900F90DF91CF910895CF93F6
S1130CD0DF931F921F92CDB7DEB789839A838981F0
S1130CE09A819C012D5F3F4F89819A81FC01218368
S1130CF0328329813A818FEF9FEFDC01F9018383ED
S1130D009483A583B68389819A819C012D5F3F4F8B
S1130D1089819A81FC012783308789819A819C018A
S1130D202D5F3F4F89819A81FC0121873287898118
S1130D309A81FC01108200000F900F90DF91CF91F7
S1130D400895CF93DF931F921F92CDB7DEB78983A7
S1130D509A8389819A81FC011286138600000F9080
S1130D600F90DF91CF910895CF93DF9300D000D0FF
S1130D70CDB7DEB78B839C836D837E838B819C810F
S1130D80FC018181928189839A838D819E8129814D
S1130D903A81FC012483358389819A81FC0126816F
S1130DA037818D819E81FC012683378389819A81D5
S1130DB0FC01868197812D813E81FC01248335834A
S1130DC089819A812D813E81FC01268337838D811F
S1130DD09E812B813C81FC01228733878B819C81FE
S1130DE0FC01808121E0280F8B819C81FC01208300
S1130DF000002696CDBFDEBFDF91CF910895CF933B
S1130E00DF93CDB7DEB72A97CDBFDEBF8F83988738
S1130E1069877A8789859A85FC0180819181A2817D
S1130E20B3818B839C83AD83BE838B819C81AD8195
S1130E30BE818F3F9F4FAF4FBF4F41F48F81988545
S1130E40FC018185928589839A8320C08F8198854E
S1130E50039689839A8307C089819A81FC018481DE
S1130E60958189839A8389819A81FC018481958102
S1130E70FC0120813181428153818B819C81AD8130
S1130E80BE8182179307A407B50730F789819A8139
S1130E90FC012481358189859A85FC01248335836D
S1130EA089859A85FC018481958129853A85FC018F
S1130EB02683378389859A8529813A81FC01268393
S1130EC0378389819A8129853A85FC012483358376
S1130ED089859A852F813885FC01228733878F8104
S1130EE09885FC01808121E0280F8F819885FC0181
S1130EF0208300002A96CDBFDEBFDF91CF910895F5
S1130F00CF93DF9300D01F92CDB7DEB78B839C8342
S1130F108B819C81FC018285938589839A838B8153
S1130F209C81FC01848195812B813C81F90126817E
S1130F303781FC01268337838B819C81FC01868168
S1130F4097812B813C81F90124813581FC01248323
S1130F50358389819A81FC01218132818B819C8135
S1130F602817390751F48B819C81FC012681378134
S1130F7089819A81FC01218332838B819C81FC01CC
S1130F801286138689819A81FC0180812FEF280FB4
S1130F9089819A81FC01208389819A81FC01808165
S1130FA02496CDBFDEBFDF91CF9108951F93CF93D9
S1130FB0DF93CDB7DEB780EA90E0FC01128180EACE
S1130FC090E020EA30E0F9012281287FFC012283AD
S1130FD0812FDF91CF911F910895CF93DF93CDB7E8
S1130FE0DEB72A97CDBFDEBF8D839E836F8378875C
S1130FF049875A878D819E8121E1FC0120838D815F
S11310009E8101978D839E838D819E8122E2FC01C6
S113101020838D819E8101978D839E838D819E8106
S113102023E3FC0120838D819E8101978D839E8320
S11310308F819885CC01A0E0B0E089839A83AB834B
S1131040BC8329818D819E81FC0120838D819E81B9
S113105001978D839E8389819A81AB81BC81892F7D
S11310609A2FAB2FBB2789839A83AB83BC832981B7
S11310708D819E81FC0120838D819E8101978D83CA
S11310809E8389819A81AB81BC81892F9A2FAB2F52
S1131090BB2789839A83AB83BC8329818D819E81FD
S11310A0FC0120838D819E8101978D839E838D8198
S11310B09E8121E3FC0120838D819E8101978D8394
S11310C09E838D819E8120E8FC0120838D819E81F9
S11310D001978D839E838D819E8127E8FC01208367
S11310E08D819E8101978D839E838D819E81FC01DC
S11310F010828D819E8101978D839E838D819E8137
S1131100FC0110828D819E8101978D839E838D8148
S11311109E8122E0FC0120838D819E8101978D8335
S11311209E838D819E8123E0FC0120838D819E819D
S113113001978D839E838D819E8124E0FC01208311
S11311408D819E8101978D839E838D819E8125E073
S1131150FC0120838D819E8101978D839E838D81E7
S11311609E8126E0FC0120838D819E8101978D83E1
S11311709E838D819E8127E0FC0120838D819E8149
S113118001978D839E838D819E8128E0FC012083BD
S11311908D819E8101978D839E838D819E8129E01F
S11311A0FC0120838D819E8101978D839E838D8197
S11311B09E8120E1FC0120838D819E8101978D8396
S11311C09E838D819E8121E1FC0120838D819E81FE
S11311D001978D839E838D819E8122E1FC01208372
S11311E08D819E8101978D839E838D819E8123E1D4
S11311F0FC0120838D819E8101978D839E838D8147
S11312009E8124E1FC0120838D819E8101978D8341
S11312109E838D819E8125E1FC0120838D819E81A9
S113122001978D839E838D819E8126E1FC0120831D
S11312308D819E8101978D839E838D819E8127E17F
S1131240FC0120838D819E8101978D839E838D81F6
S11312509E8128E1FC0120838D819E8101978D83ED
S11312609E838D819E8129E1FC0120838D819E8155
S113127001978D839E838D819E8120E2FC012083D2
S11312808D819E8101978D839E838D819E8121E234
S1131290FC0120838D819E8101978D839E838D81A6
S11312A09E8122E2FC0120838D819E8101978D83A2
S11312B09E838D819E8123E2FC0120838D819E810A
S11312C001978D839E8389859A85CC01A0E0B0E047
S11312D089839A83AB83BC8329818D819E81FC01A0
S11312E020838D819E8101978D839E8389819A813C
S11312F0AB81BC81892F9A2FAB2FBB2789839A831B
S1131300AB83BC8329818D819E81FC0120838D81E7
S11313109E8101978D839E838D819E8126E2FC01AF
S113132020838D819E8101978D839E838D819E81F3
S113133027E2FC0120838D819E8101978D839E830A
S11313408D819E8128E2FC0120838D819E810197FD
S11313508D839E838D819E8129E2FC0120838D8172
S11313609E8101978D839E838D819E8120E3FC0164
S113137020838D819E8101978D839E838D819E81A3
S11313802A96CDBFDEBFDF91CF910895CF93DF932F
S1131390CDB7DEB70E940D0BA0916839B0916939C1
S11313A00D900DBE0D900EBEEF91DF91CF91BF91C8
S11313B0AF919F918F917F916F915F914F913F91E9
S11313C02F911F910F91FF90EF90DF90CF90BF90DE
S11313D0AF909F908F907F906F905F904F903F90D1
S11313E02F901F900F90FF91F093A200FF91FFBFE9
S11313F0FF91089581E0DF91CF910895FF93FFB7A6
S1131400FF93F091A200FF93F87FF093A2000F9254
S11314101F9211242F923F924F925F926F927F926C
S11314208F929F92AF92BF92CF92DF92EF92FF92F0
S11314300F931F932F933F934F935F936F937F93D8
S11314408F939F93AF93BF93CF93DF93EF93A09129
S11314506839B09169390DB60D920EB60D920E949D
S11314608D14A0916839B09169390D900DBE0D901D
S11314700EBEEF91DF91CF91BF91AF919F918F916C
S11314807F916F915F914F913F912F911F910F9198
S1131490FF90EF90DF90CF90BF90AF909F908F9090
S11314A07F906F905F904F903F902F901F900F9080
S11314B0FF91F093A200FF91FFBFFF9108950000F8
S11314C01F93CF93DF931F92CDB7DEB789838091AB
S11314D0AC3A982F8981892B8093AC3A80EA90E0CA
S11314E0FC018081813061F080EA90E0FC01808120
S11314F0823031F080EA90E0FC018081843079F41C
S11315008091AC3A882359F00E94D607182F109284
S1131510AC3A0E948D1480EA90E0FC011283000032
S11315200F90DF91CF911F9108951F93CF93DF9375
S1131530CDB7DEB70E94D607182F0E947D1380EA2C
S113154090E0FC0112830000DF91CF911F91089578
S1131550FF93FFB7FF93F091A200FF93F87FF093FE
S1131560A2000F921F9211242F923F924F925F92EA
S11315706F927F928F929F92AF92BF92CF92DF929F
S1131580EF92FF920F931F932F933F934F935F9389
S11315906F937F938F939F93AF93BF93CF93DF9377
S11315A0EF93A0916839B09169390DB60D920EB6DA
S11315B00D920E94950A81E00E94600AA091683908
S11315C0B09169390D900DBE0D900EBEEF91DF9173
S11315D0CF91BF91AF919F918F917F916F915F91C7
S11315E04F913F912F911F910F91FF90EF90DF90BA
S11315F0CF90BF90AF909F908F907F906F905F90AF
S11316004F903F902F901F900F90FF91F093A20066
S1131610FF91FFBFFF9118950000CF93DF9300D097
S11316201F92CDB7DEB780E09DE7A0E0B0E08983EC
S11316309A83AB83BC8389819A81AB81BC81689492
S113164015F8B695A795979587951694D1F789833C
S11316509A83AB83BC8389819A81AB81BC810197D6
S1131660A109B10989839A83AB83BC8380E098E0A4
S113167029813A81FC0126A337A365E080E098E044
S11316800E94020261E080E098E00E947202000081
S11316902496CDBFDEBFDF91CF910895CF93DF9322
S11316A0CDB7DEB72597CDBFDEBF8B839C836D831B
S11316B08B819C8189839A83F091A200FF93F87FA8
S11316C0F093A20089819A81FC0180819181298112
S11316D03A81F901278D422F50E029813A81F9019D
S11316E020A1222F30E0429FB001439F700D529FF2
S11316F0700D11249B01280F391F89819A81FC01E7
S11317002283338389819A81FC01168E89819A818F
S1131710FC012081318189819A81FC0124833583F4
S113172089819A81FC018081918129813A81F90121
S1131730278D222F30E0A9014150510929813A8196
S1131740F90120A1222F30E0429FB001439F700D88
S1131750529F700D11249B01280F391F89819A8192
S1131760FC012683378389819A812FEFFC0121A311
S113177089819A812FEFFC0122A38D81882381F432
S113178089819A81FC0180858823A1F089819A81CD
S113179008960E94F815882369F00E94FE090AC081
S11317A089819A8108960E94670689819A81439665
S11317B00E946706FF91F093A20081E02596CDBFB9
S11317C0DEBFDF91CF9108950F931F93CF93DF93E3
S11317D0CDB7DEB72997CDBFDEBF8F836887498732
S11317E08885882319F419821A820FC08F81482FA3
S11317F050E08885282F30E0429FC001439F900D20
S1131800529F900D112489839A8389819A818596A8
S11318100E9415068B839C838B819C81892B81F08C
S11318208B819C8185968D839E832B813C818D81C8
S11318309E8189012985AC0168858F810E942A0CCB
S11318408B819C812996CDBFDEBFDF91CF911F9103
S11318500F9108950F931F93CF93DF93CDB7DEB706
S11318602797CDBFDEBF89836A834B835C832D8337
S11318700E831F838A81882341F48E819F812E8168
S11318803F81FC012083318307C08E819F812B819E
S11318903C81FC01208331838E819F812981FC015D
S11318A0278F8E819F812A81FC0120A38E819F81B5
S11318B061E00E944E0B8E819F812D81FC0124A347
S11318C000002796CDBFDEBFDF91CF911F910F910E
S11318D008950F93CF93DF93CDB7DEB76297CDBF53
S11318E0DEBF8A879B876C877D872E873F87488BDF
S11318F0598B0A8B19828A859B858A839B83F091F5
S1131900A200FF93F87FF093A2008A819B81FC01DF
S1131910268D8A819B81FC01878D281718F08A897E
S1131920823019F52C853D858A819B814A89B901CC
S11319300E94670E8C838A819B81FC0183898823A2
S113194051F08A819B8143960E94F815882341F0C7
S11319500E94FE0905C08C81882311F00E94FE09B3
S1131960FF91F093A20081E06FC08E859F85A889C6
S1131970B989892B8A2B8B2B29F4FF91F093A20030
S113198080E062C08981882331F4CE0105960E94EB
S1131990C31681E08983FF91F093A2000E94B212E2
S11319A0F091A200FF93F87FF093A2008A819B81BB
S11319B0FC0181A18F3F21F48A819B81FC0111A24A
S11319C08A819B81FC0182A18F3F21F48A819B81C2
S11319D0FC0112A2FF91F093A2009E01225F3F4FEF
S11319E0CE010596B9010E94E616882331F58A8155
S11319F09B810E94F20F8823C9F08E859F85A88958
S1131A00B9892A813B81285F3F4FAC01BD01C901DF
S1131A100E945D158A819B810E946C0F0E94BF12F7
S1131A20882309F06CCF0E94FE0969CF8A819B81CB
S1131A300E946C0F0E94BF1262CF8A819B810E9418
S1131A406C0F0E94BF1280E06296CDBFDEBFDF91B3
S1131A50CF910F910895CF93DF93CDB7DEB72C9735
S1131A60CDBFDEBF8E839F83688779874A875B8774
S1131A702C878E819F818A839B830E94D6078C83C7
S1131A808A819B81FC01268D8A819B81FC01878D43
S1131A90281718F08C85823089F58A819B81FC0196
S1131AA082A18D83288539858A819B814C85B901E2
S1131AB00E94670E8D818F3FB9F48A819B81FC015E
S1131AC083898823C1F08A819B8143960E94F815FB
S1131AD0882389F08A859B85892B69F08A859B8573
S1131AE021E0FC01208307C08D818F5F282F8A812C
S1131AF09B81FC0122A381E0898301C0198280EAD1
S1131B0090E02C81FC01228389812C96CDBFDEBF1D
S1131B10DF91CF910895CF93DF93CDB7DEB761976F
S1131B20CDBFDEBF8A879B876C877D872E873F87E3
S1131B30488B598B19828A859B858A839B83F09174
S1131B40A200FF93F87FF093A2008A819B81FC019D
S1131B50868D8C838C81882311F12C853D858A8127
S1131B609B81B9010E941C0F8C812FEF280F8A8161
S1131B709B81FC01268F8A819B81FC0180858823BF
S1131B8049F08A819B8108960E94F815882311F0F8
S1131B900E94FE09FF91F093A20081E076C08E8539
S1131BA09F85A889B989892B8A2B8B2B29F4FF91CE
S1131BB0F093A20080E069C08981882331F4CE01CA
S1131BC005960E94C31681E08983FF91F093A200D9
S1131BD00E94B212F091A200FF93F87FF093A2004A
S1131BE08A819B81FC0181A18F3F21F48A819B81A1
S1131BF0FC0111A28A819B81FC0182A18F3F21F407
S1131C008A819B81FC0112A2FF91F093A2009E01A4
S1131C10225F3F4FCE010596B9010E94E616882344
S1131C2031F58A819B810E94D10F8823C9F08E856A
S1131C309F85A889B9892A813B812D5E3F4FAC01DC
S1131C40BD01C9010E945D158A819B810E946C0FB0
S1131C500E94BF12882309F072CF0E94FE096FCF41
S1131C608A819B810E946C0F0E94BF1268CF8A8177
S1131C709B810E946C0F0E94BF128A819B810E94EB
S1131C80D10F882309F45BCF80E06196CDBFDEBF1E
S1131C90DF91CF910895CF93DF9300D0CDB7DEB716
S1131CA08A839B83F091A200FF93F87FF093A200B4
S1131CB08A819B81FC01868D8983FF91F093A20028
S1131CC089812396CDBFDEBFDF91CF910895CF9355
S1131CD0DF93CDB7DEB72797CDBFDEBF8B839C8361
S1131CE06D837E834F831A828B819C81FC01868D58
S1131CF089838B819C81FC0180A1882309F48EC097
S1131D008F818823D9F58B819C81FC0180A1482F88
S1131D1050E08B819C81FC01848195812D813E81E1
S1131D20B9010E9453328B819C81FC01248135814D
S1131D308B819C81FC0180A1882F90E0280F391FA2
S1131D408B819C81FC01248335838B819C81FC01E4
S1131D50248135818B819C81FC01828193812817A8
S1131D60390708F45BC08B819C81FC01208131819F
S1131D708B819C81FC012483358350C08B819C81A1
S1131D80FC0180A1482F50E08B819C81FC0186815D
S1131D9097812D813E81B9010E9453328B819C81B0
S1131DA0FC01268137818B819C81FC0180A1882FD5
S1131DB090E0919581959109280F391F8B819C8121
S1131DC0FC01268337838B819C81FC01268137812A
S1131DD08B819C81FC018081918128173907A8F4AB
S1131DE08B819C81FC01228133818B819C81FC014C
S1131DF080A1882F90E0919581959109280F391F32
S1131E008B819C81FC01268337838F81823031F45E
S1131E108981882319F0898181508983898121E00E
S1131E20280F8B819C81FC01268F8A812796CDBF48
S1131E30DEBFDF91CF910895CF93DF9300D01F923F
S1131E40CDB7DEB789839A836B837C8389819A813A
S1131E50FC0180A18823C9F189819A81FC01268132
S1131E60378189819A81FC0180A1882F90E0280F15
S1131E70391F89819A81FC012683378389819A815C
S1131E80FC012681378189819A81FC0182819381B9
S1131E902817390750F089819A81FC01208131810A
S1131EA089819A81FC012683378389819A81FC0187
S1131EB080A1482F50E089819A81FC0126813781D5
S1131EC08B819C81B9010E94533200002496CDBFBE
S1131ED0DEBFDF91CF910895CF93DF9300D01F929F
S1131EE0CDB7DEB78B839C83F091A200FF93F87F7C
S1131EF0F093A2008B819C81FC0182A1898312C092
S1131F008B819C81FC018389882381F08B819C8156
S1131F1043960E94F815882311F00E948E17898138
S1131F2081508983898118165CF301C000008B817C
S1131F309C812FEFFC0122A3FF91F093A200F0916A
S1131F40A200FF93F87FF093A2008B819C81FC0197
S1131F5081A18A8312C08B819C81FC0180858823A6
S1131F6081F08B819C8108960E94F815882311F0DA
S1131F700E948E178A8181508A838A8118165CF3A5
S1131F8001C000008B819C812FEFFC0121A3FF91F4
S1131F90F093A20000002496CDBFDEBFDF91CF9165
S1131FA00895CF93DF9300D0CDB7DEB78A839B83A8
S1131FB0F091A200FF93F87FF093A2008A819B81A5
S1131FC0FC01868D882319F481E0898301C019827C
S1131FD0FF91F093A20089812396CDBFDEBFDF91EC
S1131FE0CF910895CF93DF9300D0CDB7DEB78A8326
S1131FF09B83F091A200FF93F87FF093A2008A8163
S11320009B81FC01268D8A819B81FC01878D281789
S113201019F481E0898301C01982FF91F093A20031
S113202089812396CDBFDEBFDF91CF910895CF93F1
S1132030DF93CDB7DEB72997CDBFDEBF8B839C83FB
S11320404D835E836F83788729878B819C81898305
S11320509A83F091A200FF93F87FF093A200898104
S11320609A81FC0181A18F3F21F489819A81FC012D
S113207011A289819A81FC0182A18F3F21F4898177
S11320809A81FC0112A2FF91F093A20089819A81A6
S1132090FC01868D882371F489819A81FC017396F1
S11320A08D819E81AF81B8852985AC01BD01CF01A9
S11320B00E94C41589819A810E946C0F00002996A0
S11320C0CDBFDEBFDF91CF9108958F929F92AF92E3
S11320D0BF92CF92DF92EF92FF920F931F93CF9311
S11320E0DF93CDB7DEB76097CDBFDEBF8E839F830E
S11320F0688779874A875B872C873D870E87EF86B9
S1132100F88A8A859B850E9415068C839D838C8121
S11321109D81892BB9F08CE290E00E941506898399
S11321209A8389819A81892B41F089819A812C81B2
S11321303D81FC01238F348F07C08C819D810E94D7
S1132140590602C019821A8289819A81892B09F160
S11321508A859B85CC01A0E0B0E009811A814F8576
S113216058892C853D8568857985EE81FF81812C90
S1132170912C58016A01EE8489019C01AD01CF01C3
S11321800E94DC1089819A810E94B21181E08B83C4
S113219002C08FEF8B838B816096CDBFDEBFDF9152
S11321A0CF911F910F91FF90EF90DF90CF90BF9050
S11321B0AF909F908F9008958F929F92AF92BF920D
S11321C0CF92DF92EF92FF920F931F93CF93DF93FF
S11321D0CDB7DEB76497CDBFDEBF8C839D836E839E
S11321E07F83288739874A875B870C871D87EE861C
S11321F0CF86D88AA98ABA8A8B8A9C8A2885398507
S113220089899A89FC01838D948DA90165EA70E01E
S11322100E945C3289899A89FC01238D348D8885DA
S113222099850197820F931F8A839B83198221C00A
S11322308981882F90E02981222F30E04E815F81AF
S1132240240F351FF901408129893A89820F931F90
S11322504D96FC0140838981882F90E02E813F8137
S1132260820F931FFC018081882339F089818F5F5D
S1132270898389818830E0F201C0000089899A89C4
S1132280FC0114A28E85843010F083E08E87898946
S11322909A892E85FC01228F89899A8902960E9447
S11322A0A10689899A890E960E94A10689899A892C
S11322B029893A89FC01228733878E85882F90E00B
S11322C0A0E0B0E024E030E040E050E079018A0191
S11322D0E81AF90A0A0B1B0BD801C70129893A89A4
S11322E0F90186879787A08BB18B89899A89298977
S11322F03A89FC01268B378B89899A89FC0117A2BC
S113230010A611A612A689899A89FC0113A64C85E8
S11323105D852C813D818A819B81B9010E94ED07F5
S11323209C0189899A89FC01208331838F8598894E
S1132330892B39F08F85988929893A89FC01208372
S1132340318300006496CDBFDEBFDF91CF911F9132
S11323500F91FF90EF90DF90CF90BF90AF909F9040
S11323608F900895CF93DF931F921F92CDB7DEB75E
S113237089839A83F091A200FF93F87FF093A200DF
S11323808091C6398F5F8093C63980916839909166
S11323906939892B69F489819A818093683990938A
S11323A069398091C6398130C9F40E94AC1716C0CE
S11323B08091CC39882391F480916839909169395E
S11323C0FC01228D89819A81FC01828D821730F073
S11323D089819A8180936839909369398091D03941
S11323E08F5F8093D0392091D03989819A81FC0103
S11323F025A389819A81FC01928D8091CB3989171B
S113240030F489819A81FC01828D8093CB39898152
S11324109A81AC014E5F5F4F89819A81FC01828D64
S1132420282F30E06BE0629FC001639F900D112460
S11324308659964CBA010E94B406FF91F093A2000B
S11324408091CC39882371F08091683990916939F1
S1132450FC01228D89819A81FC01828D281710F458
S11324600E94FE0900000F900F90DF91CF91089514
S1132470CF93DF93CDB7DEB72597CDBFDEBF6A8399
S11324807B838C839D8319828A819B81AC81BD81EE
S1132490892B8A2B8B2B71F00E94B2128A819B812B
S11324A0AC81BD8140E0BC01CD010E9489180E942D
S11324B0BF1289838981882311F40E94FE090000D8
S11324C02596CDBFDEBFDF91CF910895EF92FF92A5
S11324D00F93CF93DF931F92CDB7DEB70F2EF5ED99
S11324E0EF2EF9E3FF2EF02D00E020E030E048EC81
S11324F050E064E670E289E997E10E9465108983FF
S11325008981813019F40E942A1989838981813053
S113251009F580EA90E020EA30E0F9012281287F81
S1132520FC0122838FEF9FEFDC018093D1399093DC
S1132530D239A093D339B093D43981E08093CC3984
S11325401092C7391092C8391092C9391092CA39F9
S11325500E94C60900000F90DF91CF910F91FF9068
S1132560EF900895CF93DF93CDB7DEB78091D7393D
S11325708F5F8093D7390000DF91CF910895CF9377
S1132580DF9300D01F92CDB7DEB719821A821B8267
S1132590F091A200FF93F87FF093A2008091D739C5
S11325A081508093D7398091D739882309F074C03A
S11325B08091C639882309F46FC046C08091B73929
S11325C09091B839FC018085918589839A838981AA
S11325D09A810E960E94800789819A8102960E94B0
S11325E0800789819A81FC01928D8091CB3989176A
S11325F030F489819A81FC01828D8093CB39898161
S11326009A81AC014E5F5F4F89819A81FC01828D72
S1132610282F30E06BE0629FC001639F900D11246E
S11326208659964CBA010E94B40689819A81FC01AC
S1132630228D8091683990916939FC01828D281727
S113264018F081E08093CE398091B039882309F065
S1132650B5CF89819A81892B11F00E94EF1780915F
S1132660CD398C838C81882379F00E947D13882353
S113267019F081E08093CE398C8181508C838C81D8
S1132680882399F71092CD398091CE39882321F08F
S113269081E08B830E94FE09FF91F093A2008B815D
S11326A02496CDBFDEBFDF91CF910895CF93DF9302
S11326B000D01F92CDB7DEB7F091A200FF93F87F50
S11326C0F093A2008091C7399091C839A091C9397B
S11326D0B091CA3989839A83AB83BC83FF91F09309
S11326E0A20089819A81AB81BC81BC01CD01249671
S11326F0CDBFDEBFDF91CF910895CF93DF93CDB7E8
S1132700DEB72D97CDBFDEBF19828091D7398823DC
S113271009F0F1C08091C7399091C839A091C939A5
S1132720B091CA390196A11DB11D8A839B83AC83E4
S1132730BD838A819B81AC81BD818093C73990938D
S1132740C839A093C939B093CA398A819B81AC81B5
S1132750BD81892B8A2B8B2BD9F48091AC39909134
S1132760AD398E839F838091AE399091AF39809338
S1132770AC399093AD398E819F818093AE3990931B
S1132780AF398091CF398F5F8093CF390E94EF1793
S11327908091D1399091D239A091D339B091D43963
S11327A02A813B814C815D81281739074A075B07E1
S11327B008F48AC08091AC399091AD39FC018081D4
S11327C0882361F48FEF9FEFDC018093D1399093DC
S11327D0D239A093D339B093D43976C08091AC392F
S11327E09091AD39FC0187819085FC0180859185AC
S11327F08887998788859985FC0182819381A48142
S1132800B5818A879B87AC87BD872A813B814C81B0
S11328105D818A859B85AC85BD85281739074A0764
S11328205B0768F48A859B85AC85BD858093D13927
S11328309093D239A093D339B093D43945C08885C5
S1132840998502960E94800788859985FC01808D70
S1132850918D892B29F0888599850E960E94800791
S113286088859985FC01928D8091CB39891730F444
S113287088859985FC01828D8093CB3988859985DB
S1132880AC014E5F5F4F88859985FC01828D282FAE
S113289030E06BE0629FC001639F900D1124865964
S11328A0964CBA010E94B40688859985FC01228D54
S11328B08091683990916939FC01828D281708F458
S11328C079CF81E0898376CF809168399091693995
S11328D0FC01828D282F30E04BE0429FC001439FD2
S11328E0900D11248659964CFC018081823040F071
S11328F081E0898305C08091CD398F5F8093CD3984
S11329008091CE39882311F081E0898389812D96C5
S1132910CDBFDEBFDF91CF910895CF93DF93CDB7C5
S1132920DEB72997CDBFDEBF8091D739882321F048
S113293081E08093CE39BAC01092CE398091683943
S113294090916939FC01838D948D8A839B8385EAF8
S113295095EADC018C839D83AE83BF838A819B814E
S1132960FC0120813181428153818C819D81AE8122
S1132970BF81281739074A075B0799F58A819B812C
S11329800496FC0120813181428153818C819D8197
S1132990AE81BF81281739074A075B0711F58A8181
S11329A09B810896FC0120813181428153818C8175
S11329B09D81AE81BF81281739074A075B0789F4D7
S11329C08A819B810C96FC01208131814281538153
S11329D08C819D81AE81BF81281739074A075B0727
S11329E071F080916839909169399C01235E3F4F61
S11329F08091683990916939B9010E948E02809161
S1132A00CB39898303C08981815089838981282FA7
S1132A1030E04BE0429FC001439F900D1124865942
S1132A20964CFC018081882371F38981282F30E042
S1132A304BE0429FC001439F900D11248659964C50
S1132A408887998788859985FC0181819281FC0119
S1132A502481358188859985FC0121833283888589
S1132A609985FC01218132818885998503962817EF
S1132A70390769F488859985FC0181819281FC017B
S1132A802481358188859985FC0121833283888559
S1132A909985FC0181819281FC01808591858093D7
S1132AA068399093693989818093CB3900002996DC
S1132AB0CDBFDEBFDF91CF910895CF93DF9300D0D8
S1132AC000D0CDB7DEB789839A834B835C836D8353
S1132AD07E8380916839909169399C01225F3F4FD0
S1132AE089819A81B9010E94FF068B819C81AD8105
S1132AF0BE8141E0BC01CD010E94891800002696E8
S1132B00CDBFDEBFDF91CF9108950F931F93CF9375
S1132B10DF93CDB7DEB72A97CDBFDEBF89839A8313
S1132B204B835C836D837E830F83188729873A8761
S1132B3020916839309169398B819C81AD81BE8146
S1132B40B068F90186879787A08BB18B809168392B
S1132B50909169399C01225F3F4F89819A81B90123
S1132B600E94B4068F819885A985BA8541E0BC018D
S1132B70CD010E94891800002A96CDBFDEBFDF91E7
S1132B80CF911F910F910895CF93DF93CDB7DEB707
S1132B902797CDBFDEBF89839A834B835C836D8384
S1132BA07E832F8380916839909169399C01225FDB
S1132BB03F4F89819A81B9010E94B4068F8188238D
S1132BC039F08FEF9FEFDC018B839C83AD83BE8351
S1132BD08B819C81AD81BE814F81BC01CD010E945E
S1132BE0891800002796CDBFDEBFDF91CF910895ED
S1132BF0CF93DF93CDB7DEB72597CDBFDEBF8C83F0
S1132C009D838C819D81FC0187819085FC01808559
S1132C1091858A839B838A819B810E960E9480077B
S1132C208091D739882351F58A819B8102960E942D
S1132C3080078A819B81FC01928D8091CB39891711
S1132C4030F48A819B81FC01828D8093CB398A8107
S1132C509B81AC014E5F5F4F8A819B81FC01828D19
S1132C60282F30E06BE0629FC001639F900D112418
S1132C708659964CBA010E94B40608C08A819B8189
S1132C800E96BC0180EB99E30E94B4068A819B8175
S1132C90FC01228D8091683990916939FC01828D03
S1132CA0821730F481E0898381E08093CE3901C0BA
S1132CB0198289812596CDBFDEBFDF91CF9108951A
S1132CC0CF93DF93CDB7DEB72897CDBFDEBF8B831D
S1132CD09C834D835E836F8378878D819E81AF81D2
S1132CE0B885B0682B813C81F90180839183A283EC
S1132CF0B3838B819C81FC018085918589839A8330
S1132D008B819C810E94800789819A8102960E940E
S1132D10800789819A81FC01928D8091CB39891732
S1132D2030F489819A81FC01828D8093CB39898129
S1132D309A81AC014E5F5F4F89819A81FC01828D3B
S1132D40282F30E06BE0629FC001639F900D112437
S1132D508659964CBA010E94B40689819A81FC0175
S1132D60228D8091683990916939FC01828D821796
S1132D7018F481E08093CE3900002896CDBFDEBFE1
S1132D80DF91CF910895CF93DF931F921F92CDB718
S1132D90DEB789839A832091CF3989819A81FC0196
S1132DA020838091C7399091C839A091C939B091D5
S1132DB0CA3929813A81F90181839283A383B48337
S1132DC000000F900F90DF91CF910895EF92FF9242
S1132DD00F931F93CF93DF93CDB7DEB72D97CDBF5E
S1132DE0DEBF8A879B876C877D87F091A200FF9363
S1132DF0F87FF093A2008091C7399091C839A091CF
S1132E00C939B091CA398A839B83AC83BD838A85CF
S1132E109B85FC0181819281A381B4812A813B81BC
S1132E204C815D8179018A01E81AF90A0A0B1B0BAE
S1132E30D801C7018E839F83A887B9878C859D8518
S1132E40FC0180819181A281B3818F3F9F4FAF4F5D
S1132E50BF4F11F4198254C08A859B85FC0190816F
S1132E608091CF39981799F08A859B85FC0121813F
S1132E703281438154818A819B81AC81BD818217D7
S1132E809307A407B50718F081E0898339C08C85BE
S1132E909D85FC0120813181428153818E819F81F6
S1132EA0A885B98582179307A407B50700F58C8513
S1132EB09D85FC0120813181428153818E819F81D6
S1132EC0A885B98579018A01E81AF90A0A0B1B0B4E
S1132ED0D801C7012C853D85F90180839183A283A4
S1132EE0B3838A859B850E94C316198209C08C8589
S1132EF09D85FC01108211821282138281E08983F4
S1132F00FF91F093A20089812D96CDBFDEBFDF91A2
S1132F10CF911F910F91FF90EF900895CF93DF937E
S1132F20CDB7DEB781E08093CE390000DF91CF9139
S1132F300895CF93DF931F921F92CDB7DEB7898395
S1132F409A830E94E71780916A39823010F00E94B8
S1132F50FE090E94881EF5CFCF93DF931F92CDB751
S1132F60DEB7198210C08981282F30E04BE0429FE0
S1132F70C001439F900D11248659964C0E94670608
S1132F8089818F5F89838981843068F386E999E335
S1132F900E94670681EA99E30E94670680EB99E341
S1132FA00E9467068BEB99E30E94670686E999E322
S1132FB08093AC399093AD3981EA99E38093AE392B
S1132FC09093AF3900000F90DF91CF910895CF9384
S1132FD0DF93CDB7DEB70000DF91CF910895CF9393
S1132FE0DF931F921F92CDB7DEB78091AC399091D9
S1132FF0AD39FC018081882361F48FEF9FEFDC0100
S11330008093D1399093D239A093D339B093D439E2
S11330101BC08091AC399091AD39FC0187819085BA
S1133020FC018085918589839A8389819A81FC0139
S113303082819381A481B5818093D1399093D239CF
S1133040A093D339B093D43900000F900F90DF913F
S1133050CF910895CF93DF931F92CDB7DEB78091C0
S1133060CC39882319F481E0898308C08091D73949
S1133070882319F482E0898301C0198289810F9021
S1133080DF91CF910895EF92FF920F931F93CF9307
S1133090DF9300D01F92CDB7DEB78091683990914D
S11330A06939FC0186859785A089B18989839A83CA
S11330B0AB83BC83609168397091693980916839B8
S11330C090916939FC01828D882F90E0A0E0B0E0F6
S11330D024E030E040E050E079018A01E81AF90A7E
S11330E00A0B1B0BD801C701FB0186879787A08BAE
S11330F0B18B89819A81AB81BC81BC01CD012496BD
S1133100CDBFDEBFDF91CF911F910F91FF90EF9064
S11331100895CF93DF93CDB7DEB72D97CDBFDEBF34
S113312069877A878B879C874D878091C73990916F
S1133130C839A091C939B091CA3989839A83AB83BC
S1133140BC83809168399091693902960E94800706
S113315089859A85AB85BC858F3F9F4FAF4FBF4F05
S113316071F48D85882359F080916839909169397B
S11331700296BC018BEB99E30E94B40664C02981DA
S11331803A814B815C8189859A85AB85BC85820FA8
S1133190931FA41FB51F8D839E83AF83B88720918F
S11331A06839309169398D819E81AF81B885F90183
S11331B082839383A483B5832D813E814F81588577
S11331C089819A81AB81BC81281739074A075B073B
S11331D078F480916839909169399C012E5F3F4F52
S11331E08091AE399091AF39B9010E94FF062BC08E
S11331F080916839909169399C012E5F3F4F80918D
S1133200AC399091AD39B9010E94FF068091D13952
S11332109091D239A091D339B091D4392D813E8186
S11332204F815885281739074A075B0760F48D8159
S11332309E81AF81B8858093D1399093D239A09380
S1133240D339B093D43900002D96CDBFDEBFDF91C2
S1133250CF910895EF92FF920F93CF93DF931F9234
S1133260CDB7DEB719820E94BB1D8091F2399091CF
S1133270F339892B91F00F2EF4EFEF2EF9E3FF2EA3
S1133280F02D03E020E030E048EC50E069E670E225
S113329080E49AE10E946510898389810F90DF910F
S11332A0CF910F91FF90EF900895CF92DF92EF921C
S11332B0FF920F931F93CF93DF93CDB7DEB767973A
S11332C0CDBFDEBF8B879C876D872E873F87488B5A
S11332D0598B0A8B1B8BCC8ADD8AEE8AFF8A198272
S11332E08091F2399091F339892B09F444C08D858A
S11332F08A838E859F85A889B9898B839C83AD83B6
S1133300BE838B859C858F8398878D85863034F525
S11333100E942A18823099F4E091F239F091F3393D
S11333208C899D89AE89BF89BE016E5F7F4F00E0A5
S11333309C01AD01CF010E94690C89831CC080915E
S1133340F2399091F339BE016E5F7F4F00E020E0C7
S113335030E0A9010E94690C89830DC08091F23983
S11333609091F3394A895B89BE016E5F7F4F20E0FB
S11333700E942B0D898389816796CDBFDEBFDF91C3
S1133380CF911F910F91FF90EF90DF90CF90089510
S1133390CF92DF92EF92FF920F931F93CF93DF931D
S11333A0CDB7DEB72B97CDBFDEBF6C837D838E8315
S11333B09F83288739874A875B878091EE3990916C
S11333C0EF39FC0187819085FC0180859185898393
S11333D09A8389819A8102960E94800789819A81C1
S11333E0FC0182898130B1F589819A81FC012685AD
S11333F03785408951898C819D81AE81BF81820F3F
S1133400931FA41FB51FEC80FD800E811F812885AA
S113341039854A855B85E981FA81670178018901EB
S11334209A01AC01BD01CF010E945E1B882391F07B
S11334308C819D81AE81BF81E981FA81C12CD12C1F
S1133440760100E010E09C01AD0160E0CF010E9434
S113345055198B8389819A81FC0125893689898153
S11334609A81F901199500002B96CDBFDEBFDF913B
S1133470CF911F910F91FF90EF90DF90CF9008951F
S1133480CF93DF93CDB7DEB72797CDBFDEBF8E8353
S11334909F83CE0105960E94DB1ADC01CB01898350
S11334A09A83AB83BC832D8189819A81AB81BC8152
S11334B0422FBC01CD010E94601A0E94F71BE9CF84
S11334C0EF92FF920F931F93CF93DF93CDB7DEB7A5
S11334D02A97CDBFDEBF6E837F83888799874A870B
S11334E00E94B212CE0105960E94191BDC01CB0189
S11334F089839A83AB83BC838D81882309F04EC072
S11335008A858823E1F42E813F8148855985898104
S11335109A81AB81BC8182179307A407B50778F021
S11335200E94BF1229813A814B815C818E819F81E7
S1133530A885B985BC01CD010E94C81931C08A850E
S1133540882359F08091F0399091F139FC019081F0
S113355081E0992309F080E08A872E813F814885A4
S1133560598589819A81AB81BC8179018A01E81AE4
S1133570F90A0A0B1B0BD801C701E091F239F0914B
S1133580F3392A85AC01BD01CF010E9417100E94B6
S1133590BF12882329F40E94FE0902C00E94BF12B0
S11335A000002A96CDBFDEBFDF91CF911F910F910E
S11335B0FF90EF900895CF93DF9300D000D0CDB764
S11335C0DEB78D839E838091EE399091EF39FC01B3
S11335D0908181E0992309F080E0282F8D819E81DC
S11335E0FC0120838D819E81FC018081882389F4E4
S11335F08091EE399091EF39FC0187819085FC012F
S113360080819181A281B38189839A83AB83BC83B6
S113361004C019821A821B821C8289819A81AB811F
S1133620BC81BC01CD012696CDBFDEBFDF91CF9119
S11336300895CF93DF9300D000D0CDB7DEB78D834C
S11336409E830E945613DC01CB0189839A83AB834A
S1133650BC838091F6399091F739A091F839B091F3
S1133660F93929813A814B815C81281739074A0746
S11336705B0740F40E94011D8D819E8121E0FC01C5
S1133680208304C08D819E81FC01108289819A81EE
S1133690AB81BC818093F6399093F739A093F839C4
S11336A0B093F93989819A81AB81BC81BC01CD0188
S11336B02696CDBFDEBFDF91CF910895CF92DF92E2
S11336C0EF92FF920F931F93CF93DF93CDB7DEB7A3
S11336D02F97CDBFDEBF8A839B834C835D836E832C
S11336E07F83088719872A873B87CC86DD86EE8609
S11336F0FF8619822A813B818C819D81AE81BF81A5
S1133700F90182839383A483B5838A819B812A816F
S11337103B81FC01228733872C813D814E815F816F
S113372088859985AA85BB8582179307A407B50761
S113373040F1288539854A855B858C859D85AE85D4
S1133740BF85281B390B4A0B5B0B8A819B81FC01CB
S113375086859785A089B189281739074A075B07A9
S113376018F081E0898336C08A819B819C012E5F99
S11337703F4F8091F0399091F139B9010E94FF06D1
S113378029C0288539854A855B858C859D85AE85CC
S1133790BF85281739074A075B0780F42C813D81D0
S11337A04E815F818C859D85AE85BF85281739073D
S11337B04A075B0718F081E089830CC08A819B81EA
S11337C09C012E5F3F4F8091EE399091EF39B90102
S11337D00E94FF0689812F96CDBFDEBFDF91CF9176
S11337E01F910F91FF90EF90DF90CF900895CF92AB
S11337F0DF92EF92FF920F931F93CF93DF93CDB796
S1133800DEB76597CDBFDEBFE0C08A858823FCF4B0
S1133810CE010A96019689839A8389819A81FC0153
S11338202081318189819A81FC0184819581A681DD
S1133830B78149815A81FA010280F381E02DEC8B32
S1133840FD8BAC01BD018C899D89F90119958A858F
S113385088230CF4BAC08F8598898B839C838B81D1
S11338609C81FC0184859585892B29F08B819C8121
S113387002960E948007CE0143960E94191BDC0128
S1133880CB018D839E83AF83B8878A85082E000C75
S1133890990B092E000CAA0BBB0B40E050E029E069
S11338A030E0841B950B2817390708F48DC0FC0100
S11338B08827E250FF4F8F4F0C944B32EB84FC84EB
S11338C00D851E852B853C854D855E858B819C8170
S11338D0FC0186859785A089B189820F931FA41F57
S11338E0B51F2D813E814F815885EB81FC81670195
S11338F0780189019A01AC01BD01CF010E945E1BD0
S1133900882309F462C08B819C81FC012589368956
S11339108B819C81F90119958B819C81FC018289A1
S1133920813009F052C02B853C854D855E858B81A5
S11339309C81FC0186859785A089B189820F931F9C
S1133940A41FB51FEB81FC81C12CD12C760100E0B2
S113395010E09C01AD0160E0CF010E9455198987F8
S113396034C08B859C85AD85BE852B813C81F90156
S113397086879787A08BB18B8B819C81FC012685E0
S11339803785408951898D819E81AF81B885820FA9
S1133990931FA41FB51FED80FE800F8118852D8114
S11339A03E814F815885EB81FC8167017801890153
S11339B09A01AC01BD01CF010E945E1B06C08B8140
S11339C09C810E94590601C000008091F2399091B7
S11339D0F339BE01665F7F4F20E030E0A9010E9409
S11339E08B0D882309F011CF00006596CDBFDEBF93
S11339F0DF91CF911F910F91FF90EF90DF90CF90C7
S1133A000895CF92DF92EF92FF920F931F93CF937B
S1133A10DF93CDB7DEB72D97CDBFDEBF82C08091D7
S1133A20EE399091EF39FC0187819085FC0180810A
S1133A309181A281B38189839A83AB83BC83809172
S1133A40EE399091EF39FC0187819085FC018085E6
S1133A5091858D839E838D819E8102960E9480072D
S1133A608D819E81FC01258936898D819E81F90194
S1133A7019958D819E81FC018289813009F051C0A4
S1133A808D819E81FC0126853785408951898981F4
S1133A909A81AB81BC81820F931FA41FB51F8F83B2
S1133AA09887A987BA872F81388549855A8589815E
S1133AB09A81AB81BC8182179307A407B507F8F4F8
S1133AC02D813E818F819885A985BA85F9018283EC
S1133AD09383A483B5838D819E812D813E81FC01D6
S1133AE0228733878D819E819C012E5F3F4F809179
S1133AF0EE399091EF39B9010E94FF0612C0898115
S1133B009A81AB81BC81ED81FE81C12CD12C7601DF
S1133B1000E010E09C01AD0160E0CF010E94551966
S1133B208B878091EE399091EF39FC018081882355
S1133B3009F075CF8091EE399091EF398C879D878C
S1133B408091F0399091F1398093EE399093EF3967
S1133B508C859D858093F0399093F13900002D96E2
S1133B60CDBFDEBFDF91CF911F910F91FF90EF90FA
S1133B70DF90CF900895CF93DF93CDB7DEB7F09168
S1133B80A200FF93F87FF093A2008091F239909104
S1133B90F339892BE9F488ED99E30E94670683EEF3
S1133BA099E30E94670688ED99E38093EE39909338
S1133BB0EF3983EE99E38093F0399093F13940E043
S1133BC069E085E00E94E40B8093F2399093F33925
S1133BD0FF91F093A2000000DF91CF9108950F931D
S1133BE01F93CF93DF93CDB7DEB76497CDBFDEBF0E
S1133BF08B879C876D877E872F87388B498B5A8B61
S1133C000B8B1C8B8EEF8A838B859C858B839C838B
S1133C108D859E858D839E838F859889A989BA8990
S1133C208F839887A987BA878091F2399091F33965
S1133C304B895C89BE016E5F7F4F20E00E942B0D93
S1133C40898389816496CDBFDEBFDF91CF911F91B7
S1133C500F910895CF93DF93CDB7DEB780E590E061
S1133C6020E530E0F90120812160FC01208380E51A
S1133C7090E0FC018181882F90E081709927892B45
S1133C80B1F380E00E94E0018EE10E94A90160E0AE
S1133C9080E00E94C90143E060E080E40E94740176
S1133CA080E590E020E530E0F90120812860FC0106
S1133CB0208380E590E0FC018181882F90E088706A
S1133CC09927892BB1F364E080EC0E94910180E58F
S1133CD090E020E530E0F90120812061FC0120839F
S1133CE060E080E00E94C90180E590E0FC018181F0
S1133CF0882F90E080719927892BB1F384E00E948A
S1133D00E00187E00E94A9010000DF91CF910895AE
S1133D10CF93DF93CDB7DEB70000DF91CF91089545
S1133D20EF92FF920F93CF93DF931F92CDB7DEB73D
S1133D300E94BA2F89830E942A1E0E94BB200E94DF
S1133D40B32D0E94DB2D0E94442E0E94852D0E94DB
S1133D50F92D0E94F02EE12CF12C02E020E030E05D
S1133D604CEB52E060E070E08EE19CE20E94651052
S1133D70E12CF12C01E020E030E04CE251E060E085
S1133D8070E080E199E20E9465100E94062381E7B9
S1133D9090E2892F8F9381E790E28F931F921F9275
S1133DA01F921F920E9418230F900F900F900F9054
S1133DB00F900F9081E890E2892F8F9381E890E231
S1133DC08F931F921F921F9281E08F930E9418235A
S1133DD00F900F900F900F900F900F908EE890E23D
S1133DE0892F8F938EE890E28F931F921F921F92D8
S1133DF082E08F930E9418230F900F900F900F90E2
S1133E000F900F908981882F90E0292F2F938F9303
S1133E108DE990E2892F8F938DE990E28F931F9221
S1133E201F921F9283E08F930E9418238DB79EB731
S1133E300896CDBFDEBF0E94661280E090E00F902E
S1133E40DF91CF910F91FF90EF9008951F920F9201
S1133E5000903F000F92112400903B000F922F938B
S1133E603F934F935F936F937F938F939F93AF93FE
S1133E70BF93EF93FF93CF93DF931F92CDB7DEB73A
S1133E8019828091B13A9091B23A9E012F5F3F4FCF
S1133E9041E050E060E070E00E94EB0560E080E00B
S1133EA09BE00E94020280E09BE0FC01168200007D
S1133EB00F90DF91CF91FF91EF91BF91AF919F91BF
S1133EC08F917F916F915F914F913F912F910F90BF
S1133ED000923B000F9000923F000F901F901895A6
S1133EE0CF92DF92EF92FF920F93CF93DF9300D0A4
S1133EF01F92CDB7DEB769837A838B839C838981D4
S1133F009A81AB81BC810297A105B10540F482E09E
S1133F1090E0A0E0B0E089839A83AB83BC8380E027
S1133F209BE021E0FC01268380E09BE0FC0110A2E1
S1133F3011A260E080E09BE00E943A0289819A81AC
S1133F40AB81BC818E3F9F4FA105B10598F420E061
S1133F503BE089819A81AB81BC81B695A795979501
S1133F608795F90186A397A365E080E09BE00E9412
S1133F7002021FC089819A81AB81BC818034924442
S1133F80AF40B105B0F420E03BE089819A81AB8178
S1133F90BC81689414F8B695A7959795879516945F
S1133FA0D1F7F90186A397A367E080E09BE00E9424
S1133FB002028091B13A9091B23A0F2EF4EFCF2ED3
S1133FC0DD24D394E12CF12CF02D00E021E041E03C
S1133FD050E060E070E00E94FB0200002496CDBF38
S1133FE0DEBFDF91CF910F91FF90EF90DF90CF90E4
S1133FF00895CF93DF931F92CDB7DEB7898389816C
S11340008F70898389818295807F898380E096E09F
S113401020E036E0F901348129812F602323FC015B
S1134020248380E096E020E036E0F90134812981A0
S1134030232BFC01248300000F90DF91CF9108957E
S1134040CF93DF931F92CDB7DEB78983898188230D
S113405031F080E696E021E0FC01258305C080E68E
S113406096E021E0FC01268300000F90DF91CF91C0
S11340700895CF93DF931F92CDB7DEB789838981EB
S1134080882331F080E696E022E0FC01258305C018
S113409080E696E022E0FC01268300000F90DF9189
S11340A0CF910895CF93DF931F92CDB7DEB7898365
S11340B08981882331F080E696E024E0FC012583A1
S11340C005C080E696E024E0FC01268300000F9002
S11340D0DF91CF910895CF93DF93CDB7DEB781E021
S11340E00E94522061E070E080E090E00E94701F26
S11340F080E00E9452200000DF91CF910895CF9379
S1134100DF931F92CDB7DEB78983898182958F7043
S11341100E94F91F80E00E94202080E00E94392044
S11341200E946B2089818F700E94F91F0E946B206E
S113413000000F90DF91CF910895CF93DF931F92EA
S1134140CDB7DEB78983898182958F700E94F91F6C
S113415081E00E94202080E00E9439200E946B2090
S113416089818F700E94F91F0E946B2000000F90BC
S1134170DF91CF910895EF92FF920F93CF93DF9346
S1134180CDB7DEB780E096E020E1FC01218380E03A
S113419096E020E2FC01218380E096E020E4FC012B
S11341A0218380E096E020E8FC01218380E696E00C
S11341B021E0FC01218380E696E022E0FC012183DA
S11341C080E696E024E0FC01218380E096E020E094
S11341D036E0F90124812F70FC01248380E696E007
S11341E020E636E0F9012481287FFC01248340E0A5
S11341F066E188E00E94E40B8093AF3A9093B03A72
S11342000E94D8028093B13A9093B23AE12CF12CF7
S113421001E020E030E04EE551E06DEA70E289EB28
S113422091E20E9465100000DF91CF910F91FF9001
S1134230EF900895CF93DF9300D01F92CDB7DEB7F0
S113424089839A836B837C8389819A8181309105E8
S113425089F0823091051CF4892B39F01AC0823020
S1134260910569F0039781F014C08B8180580E94F6
S11342707F200FC08B8180540E947F200AC08B81D5
S11342808C560E947F2005C08B818C520E947F2017
S1134290000067E270E080E090E00E94701F000080
S11342A02496CDBFDEBFDF91CF910895CF93DF93E6
S11342B01F92CDB7DEB7898389810E949D206BE26E
S11342C070E080E090E00E94701F00000F90DF918A
S11342D0CF910895CF93DF9300D01F92CDB7DEB76F
S11342E08B839C8319821A8219C089819A812B81BC
S11342F03C81820F931FFC0180818823A1F0898176
S11343009A812B813C81820F931FFC0180810E9442
S1134310562189819A81019689839A8389819A8118
S113432044971CF301C0000000002496CDBFDEBFFB
S1134330DF91CF910895CF93DF9300D000D0CDB714
S1134340DEB789839A836B837C834D835E832B8161
S11343503C8189819A81B9010E941A218D819E81B3
S11343600E946A2100002696CDBFDEBFDF91CF9167
S11343700895CF93DF93CDB7DEB7C057D109CDBF32
S1134380DEBF9E0121593F4FF90180839183198239
S11343901A821B821C821D821E8226C01F821886DE
S11343A01AC02D813E8144E1429FC001439F900D7C
S11343B011249E012F5F3F4F280F391F8F8198854D
S11343C0820F931F089620E2FC0120838F81988539
S11343D001968F8398878F819885449714F38D81F4
S11343E09E8101968D839E838D819E810497B4F274
S11343F060E47CE980E090E00E94701F83E00E940A
S1134400F91F68E873E180E090E00E94701F0E9449
S11344106B2060EA70E080E090E00E94701F0E94D0
S11344206B2060EA70E080E090E00E94701F0E94C0
S11344306B2060EA70E080E090E00E94701F82E0F0
S11344400E94F91F0E946B2088E20E947F2080E175
S11344500E947F208CE00E947F2086E00E947F20C3
S113446068EC70E080E090E00E9438128091B13AEC
S11344709091B23A40E050E0BA010E943304DC016A
S1134480CB01892B8A2B8B2B09F496C08091B13AEE
S11344909091B23A42E050E060E070E00E94330450
S11344A019821A8226C01B821C821AC029813A8171
S11344B044E1429FC001439F900D11249E012F5F50
S11344C03F4F280F391F8B819C81820F931F0896C1
S11344D020E2FC0120838B819C8101968B839C8349
S11344E08B819C81449714F389819A8101968983F5
S11344F09A8389819A810497B4F25EC08091AF3A1D
S11345009091B03ABE01675A7F4F2FEF3FEFA90158
S11345100E948B0D882309F44FC019821A8232C07D
S1134520CE01875A9F4FFC018081482F50E0CE0175
S1134530875A9F4FFC018181282F30E089819A811D
S1134540820F931FBE01675A7F4F29813A81260F3C
S1134550371F2E5F3F4FF901608174E1749F900112
S1134560759F300D1124AE014F5F5F4F240F351F2F
S1134570820F931F0896FC01608389819A810196BA
S113458089839A83CE01875A9F4FFC018181282F0A
S113459030E089819A81820F931F44976CF49E01C5
S11345A0275A3F4F89819A81820F931F0296FC01FB
S11345B08081882309F0B4CF8091AF3A9091B03ACA
S11345C00E944B0E882309F099CF19821A8219C0D0
S11345D09E01275F3F4F49815A8164E1649FC00176
S11345E0659F900D1124280F391F89819A81A90193
S11345F060E070E00E949B2189819A810196898301
S11346009A8389819A8104971CF32ACFCF93DF93ED
S1134610CDB7DEB78091B13A9091B23A42E050E022
S113462060E070E00E947E040000DF91CF91089565
S1134630CF93DF931F921F92CDB7DEB7CE010E96B4
S113464089839A8329813A814C855D856A857B8536
S1134650888599850E94322300000F900F90DF9186
S1134660CF9108950F93CF93DF93CDB7DEB7EC9737
S1134670CDBFDEBF8DAB9EAB6FAB78AF49AF5AAF4A
S11346802BAF3CAF19821A821B821C820BC08B8118
S11346909C818650964CFC0110828B819C810196F2
S11346A08B839C838B819C8144978CF31D821E8217
S11346B00BC08D819E81825F954CFC0110828D819F
S11346C09E8101968D839E838D819E8144978CF378
S11346D0BEC18D89853209F0A0C189AD9AAD9C0116
S11346E02F5F3F4F29AF3AAFFC0180818D8B8D89BD
S11346F0882F90E08536910509F446C186369105E8
S113470054F48336910501F1843691050CF070C0A0
S1134710859769F09CC18337910571F188379105BC
S113472009F4A8C08636910509F4E6C090C18981D0
S11347309A81825F954C25E2FC01208389819A81CC
S1134740019689839A8383C18BAD9CAD9C012E5FB6
S11347503F4F2BAF3CAFFC01808191818E8B8981CF
S11347609A81825F954C2E89FC01208389819A81EC
S1134770019689839A836BC18BAD9CAD9C012E5F9E
S11347803F4F2BAF3CAFFC01808191818F8B988F81
S11347901F82188617C029813A818F819885820FDC
S11347A0931F2F8138854F89588D240F351FF901A8
S11347B02081825F954CFC0120838F81988501962E
S11347C08F8398878F89988D0E9463329C018F8193
S11347D0988582179307F8F28F89988D0E94633227
S11347E09C0189819A81820F931F89839A832FC1A7
S11347F08BAD9CAD9C012E5F3F4F2BAF3CAFFC01BA
S113480080819181898F9A8F898D9A8D4AE050E0B9
S11348106AEF79E30E946C3219861A8615C02981E1
S11348203A8189859A85820F931F29853A85265076
S1134830364CF9012081825F954CFC0120838985E7
S11348409A85019689879A878AEF99E30E94633251
S11348509C0189859A858217930708F38AEF99E367
S11348600E9463329C0189819A81820F931F8983FC
S11348709A83EDC08BAD9CAD9C012E5F3F4F2BAF57
S11348803CAFFC0180819181898F9A8F898D9A8DAB
S113489040E150E06AEF79E30E946C321B861C868B
S11348A015C029813A818B859C85820F931F2B85A6
S11348B03C852650364CF9012081825F954CFC01E1
S11348C020838B859C8501968B879C878AEF99E34F
S11348D00E9463329C018B859C858217930708F3A1
S11348E08AEF99E30E9463329C0189819A81820F45
S11348F0931F89839A83ABC08BAD9CAD9C012C5FC5
S11349003F4F2BAF3CAFFC0180819181A281B381E9
S11349108B8F9C8FAD8FBE8F8B8D9C8DAD8DBE8DFF
S1134920AC01BD018AEF99E30E9401261D861E8613
S113493015C029813A818D859E85820F931F2D850F
S11349403E852650364CF9012081825F954CFC014E
S113495020838D859E8501968D879E878AEF99E3B6
S11349600E9463329C018D859E858217930708F30C
S11349708AEF99E30E9463329C0189819A81820FB4
S1134980931F89839A8363C08BAD9CAD9C012C5F7C
S11349903F4F2BAF3CAFFC0180819181A281B38159
S11349A08B8F9C8FAD8FBE8F8B8D9C8DAD8DBE8D6F
S11349B0AC01BD018AEF99E30E9450271F86188A33
S11349C015C029813A818F859889820F931F2F857D
S11349D038892650364CF9012081825F954CFC01C0
S11349E020838F85988901968F87988B8AEF99E326
S11349F00E9463329C018F8598898217930708F37C
S1134A008AEF99E30E9463329C0189819A81820F23
S1134A10931F89839A8300001AC089819A81825FD7
S1134A20954C2D89FC01208389819A81825F954C64
S1134A30FC0180818A3031F489819A81825F954CAE
S1134A40FC01108289819A81019689839A8389ADB8
S1134A509AAD9C012F5F3F4F29AF3AAFFC01808193
S1134A608D8B8D89882309F034CE29813A818FA9D1
S1134A7098AD820F931F449754F024E130E08FA93E
S1134A8098ADA901481B590BCA0189839A83198AD5
S1134A901A8A0EC09E012F5D3F4F89899A89820F21
S1134AA0931FFC01108289899A890196898B9A8BBC
S1134AB089899A89449774F38DA98F8F8FA988A3C4
S1134AC01B8A1C8A14C08B899C89825F954CFC01CB
S1134AD040819E012F5D3F4F8B899C89820F931FDC
S1134AE0FC0140838B899C8901968B8B9C8B2B8941
S1134AF03C8989819A81281739072CF38091AF3A30
S1134B009091B03ABE01615E7F4F00E02FEF3FEF1E
S1134B10A9010E94690C89819A81EC96CDBFDEBF00
S1134B20DF91CF910F910895CF93DF93CDB7DEB787
S1134B302897CDBFDEBF8F83988719821A828F8111
S1134B409885FC0180819181A281B3818B839C83B0
S1134B50AD83BE8315C020E030E040E251E46B81B8
S1134B607C818D819E810E947F30DC01CB018B830F
S1134B709C83AD83BE8389819A81019689839A83BC
S1134B8020E030E040E85FE36B817C818D819E8191
S1134B900E94D9318823FCF615C020E030E040E2C1
S1134BA051E46B817C818D819E810E94DE31DC0128
S1134BB0CB018B839C83AD83BE8389819A810197CA
S1134BC089839A832DEC3CEC4CEC5DE36B817C8116
S1134BD08D819E810E947A308823FCF22F81388552
S1134BE08B819C81AD81BE81F90180839183A283F5
S1134BF0B38389819A812896CDBFDEBFDF91CF919F
S1134C000895CF92DF92EF92FF92CF93DF93CDB7C7
S1134C10DEB72E97CDBFDEBF89879A874B875C8727
S1134C206D877E8719821A821B821C828B859C85E4
S1134C30AD85BE8520E030E0A901BC01CD010E9414
S1134C407A30882359F489859A8520E3FC012083EE
S1134C5089859A850196FC01108218C18B859C85F3
S1134C60AD85BE8520E030E0A901BC01CD010E94E4
S1134C707A3088239CF489859A859C012F5F3F4F65
S1134C8029873A872DE2FC0120838B859C85AD859D
S1134C90BE85B0588B879C87AD87BE87CE010B96A7
S1134CA00E94942589839A8353C08B859C85AD8506
S1134CB0BE8520E030E040E251E4BC01CD010E9419
S1134CC0DE31DC01CB01BC01CD010E94F130DC01FD
S1134CD0CB018D839E8389859A859C012F5F3F4FED
S1134CE029873A872D81205DFC0120838B859C8553
S1134CF0AD85BE8520E030E040E251E4BC01CD0149
S1134D000E94DE31DC01CB016C017D018D819E812D
S1134D10092E000CAA0BBB0BBC01CD010E9429314A
S1134D20DC01CB019C01AD01C701B6010E940D302D
S1134D30DC01CB018B879C87AD87BE878B819C81EF
S1134D4001968B839C8389819A81019789839A83B5
S1134D5089819A81181619060CF4A7CF8B819C813E
S1134D60892B51F489859A859C012F5F3F4F2987B0
S1134D703A8720E3FC01208389859A859C012F5F73
S1134D803F4F29873A872EE2FC01208314C089858E
S1134D909A859C012F5F3F4F29873A8720E3FC01C6
S1134DA0208389819A81019789839A838B819C814D
S1134DB001968B839C8389819A8199230CF058C036
S1134DC08091F2209091F3202B813C8128173907A0
S1134DD0F4F24EC08B859C85AD85BE8520E030E025
S1134DE040E251E4BC01CD010E94DE31DC01CB0183
S1134DF0BC01CD010E94F130DC01CB018F83988787
S1134E0089859A859C012F5F3F4F29873A872F8197
S1134E10205DFC0120838B859C85AD85BE8520E0CB
S1134E2030E040E251E4BC01CD010E94DE31DC01FE
S1134E30CB016C017D018F819885092E000CAA0B92
S1134E40BB0BBC01CD010E942931DC01CB019C01CB
S1134E50AD01C701B6010E940D30DC01CB018B8787
S1134E609C87AD87BE878B819C8101968B839C83B5
S1134E708091F2209091F3202B813C8128173907EF
S1134E800CF4A8CF89859A85FC0110822E96CDBF9B
S1134E90DEBFDF91CF91FF90EF90DF90CF90089528
S1134EA0CF92DF92EF92FF92CF93DF93CDB7DEB72D
S1134EB02E97CDBFDEBF89879A874B875C876D8726
S1134EC07E871B821C828B859C85AD85BE8520E0F8
S1134ED030E0A901BC01CD010E947A30882359F445
S1134EE089859A8520E3FC01208389859A8501962A
S1134EF0FC011082ECC08B859C85AD85BE8520E0CD
S1134F0030E0A901BC01CD010E947A3088239CF4D1
S1134F1089859A859C012F5F3F4F29873A872DE227
S1134F20FC0120838B859C85AD85BE85B0588B871D
S1134F309C87AD87BE87CE010B960E9494258B83F8
S1134F409C838B859C85AD85BE8520E030E040E266
S1134F5051E4BC01CD010E94DE31DC01CB01BC0176
S1134F60CD010E94F130DC01CB018D839E838985C4
S1134F709A859C012F5F3F4F29873A872D81205DB9
S1134F80FC0120838B859C85AD85BE8520E030E0C7
S1134F9040E251E4BC01CD010E94DE31DC01CB01D1
S1134FA06C017D018D819E81092E000CAA0BBB0B27
S1134FB0BC01CD010E942931DC01CB019C01AD0172
S1134FC0C701B6010E940D30DC01CB018B879C87A1
S1134FD0AD87BE878B819C8101978B839C83898558
S1134FE09A859C012F5F3F4F29873A872EE2FC0167
S1134FF0208319821A824EC08B859C85AD85BE851F
S113500020E030E040E251E4BC01CD010E94DE31F9
S1135010DC01CB01BC01CD010E94F130DC01CB01EC
S11350208F83988789859A859C012F5F3F4F2987B5
S11350303A872F81205DFC0120838B859C85AD857B
S1135040BE8520E030E040E251E4BC01CD010E9485
S1135050DE31DC01CB016C017D018F819885092E45
S1135060000CAA0BBB0BBC01CD010E942931DC0151
S1135070CB019C01AD01C701B6010E940D30DC01DA
S1135080CB018B879C87AD87BE8789819A810196E6
S113509089839A838091F4209091F52029813A8123
S11350A0281739070CF4A8CF89859A859C012F5FAE
S11350B03F4F29873A8725E6FC01208329853A85D5
S11350C08B819C814AE050E0B9010E946C322E969B
S11350D0CDBFDEBFDF91CF91FF90EF90DF90CF90F7
S11350E00895CF93DF93CDB7DEB72797CDBFDEBF4B
S11350F08C839D836E837F8319821A821B8210C0E6
S11351002C813D818A819B81820F931FFC018081C8
S11351109981890F89838A819B8101968A839B83E4
S11351202A813B818E819F812817390748F3898121
S11351302796CDBFDEBFDF91CF910895CF93DF9344
S11351401F921F92CDB7DEB789839A8389819A8192
S1135150809714F480E30DC089819A81889714F4B0
S113516081E307C089819A81C09714F482E301C066
S113517083E30F900F90DF91CF910895CF93DF9346
S1135180CDB7DEB72897CDBFDEBF8F83988719824E
S11351901A821B821C8239C01D821E822DC0898105
S11351A09A819C012F5F3F4F29833A839C018F8111
S11351B09885820F931FFC018081882F90E09C01C9
S11351C0385F8B819C81AC01440F551F42955295E9
S11351D0507F5427407F54278D819E81840F951FD3
S11351E0880F991F8B54954CFC01208331838D814A
S11351F09E8101968D839E838D819E81809778F216
S11352008B819C8101968B839C838B819C810497E9
S11352101CF200002896CDBFDEBFDF91CF91089528
S1135220CF92DF92EF92FF920F93CF93DF93CDB79C
S1135230DEB7C254D109CDBFDEBF9E012F5B3F4F05
S1135240F9018083918340E060E484E00E94E40BF0
S11352508093B33A9093B43A06C063E070E080E080
S113526090E00E9438128091AD3A9091AE3A892B29
S1135270A1F38091AD3A9091AE3ACC24CA94DC2C3F
S1135280760101E020E041E050E060E070E00E943F
S1135290FB028091273A9091283A01968093273A0D
S11352A09093283A51C08091B33A9091B43A2FEF39
S11352B03FEFA901BE016F5F7F4F0E948B0D8130CC
S11352C009F042C01092253A1092263A37C08091D4
S11352D0273A9091283A0E949E288093223A8091FE
S11352E0223A882F90E0C097049770F48091253A71
S11352F09091263A8050904EFC0190818091233AFF
S1135300890F8093233A01C000001092273A10922B
S1135310283A80E090E20E94BE2863E170E080E0D9
S113532090E20E9471288093243A8091253A9091CA
S1135330263A01968093253A9093263A8091253A0D
S11353409091263A43971CF28091B33A9091B43AE3
S11353500E944B0E882309F0A6CF62E070E080E043
S113536090E00E94381295CFCF93DF9300D0CDB751
S1135370DEB78A839B8319828091B33A9091B43AC1
S11353806A817B8120E0AE014F5F5F4F0E942B0D4D
S113539000002396CDBFDEBFDF91CF9108951F9209
S11353A00F9200903F000F92112400903B000F9247
S11353B02F933F934F935F936F937F938F939F9319
S11353C0AF93BF93EF93FF93CF93DF93CDB7DEB744
S11353D080E091E020E031E0F90121A92061FC01A5
S11353E021AB8DE19CE30E94B4290000DF91CF91B1
S11353F0FF91EF91BF91AF919F918F917F916F91A9
S11354005F914F913F912F910F9000923B000F902D
S113541000923F000F901F9018951F920F920090DA
S11354203F000F92112400903B000F922F933F9363
S11354304F935F936F937F938F939F93AF93BF9398
S1135440EF93FF93CF93DF93CDB7DEB780E091E086
S113545020E031E02F5B3F4FF901208120618F5B19
S11354609F4FFC0120838DE59CE30E94B42900003A
S1135470DF91CF91FF91EF91BF91AF919F918F9168
S11354807F916F915F914F913F912F910F90009277
S11354903B000F9000923F000F901F901895CF9300
S11354A0DF9300D0CDB7DEB78B8387E090E08983AC
S11354B09A8320C08B81882F90E0098002C0959543
S11354C087950A94E2F781709927292F2F938F9358
S11354D088EB90E2892F8F9388EB90E28F930E9460
S11354E09C320F900F900F900F9089819A810197B1
S11354F089839A8389819A819923E4F6000023960B
S1135500CDBFDEBFDF91CF910895CF93DF93CDB7A9
S1135510DEB72A97CDBFDEBF86EF98E2A6E1B2E4FC
S11355208F839887A987BA87CE0107968D839E8338
S113553019821A8213C089819A812D813E81820F3A
S1135540931FFC01208189819A818B54944CFC0126
S1135550208389819A81019689839A8389819A819A
S1135560049748F38F819885A985BA852B2F2F93AB
S11355702A2F2F93292F2F938F938BEB90E2892F30
S11355808F938BEB90E28F930E949C320F900F903D
S11355900F900F900F900F908BEC90E2892F8F93C8
S11355A08BEC90E28F930E949C320F900F901B82A1
S11355B01C820DC08B819C818B54944CFC01808196
S11355C00E944F2A8B819C8101968B839C838B81C3
S11355D09C81049778F380E090E02A96CDBFDEBFEB
S11355E0DF91CF910895CF93DF93CDB7DEB7629764
S11355F0CDBFDEBF8091293A8F5F8093293A19820B
S11356001A8214C089819A818B54944CFC01408184
S11356109E01275F3F4F89819A81820F931FFC016E
S1135620408389819A81019689839A8389819A81A9
S11356300A9744F3CE0109960E946332888781E079
S11356408093B93B83E08093BA3B8091293A83707D
S11356508093BB3B8091293A86958695837080938D
S1135660BC3B888583708093BD3B888586958695F1
S113567083708093BE3B888582958F7083708093FE
S1135680BF3B888582958695869583708093C03BC1
S11356901B821C8263C08B819C810296880F991F98
S11356A0880F991F0396AE01475F5F4F2B813C81A2
S11356B0240F351FF901208123708754944CFC0179
S11356C020838B819C810296880F991F880F991FD4
S11356D00296AE01475F5F4F2B813C81240F351F3B
S11356E0F90120812695269523708754944CFC015A
S11356F020838B819C810296880F991F880F991FA4
S11357000196AE01475F5F4F2B813C81240F351F0B
S1135710F901208122952F7023708754944CFC0149
S113572020838B819C810296880F991F880F991F73
S1135730AE01475F5F4F2B813C81240F351FF90178
S1135740208122952695269523708754944CFC013C
S113575020838B819C8101968B839C838885282F51
S113576030E08B819C81821793070CF494CF1D82C7
S11357701E821F820EC08E819F818754944CFC012F
S113578080819D81890F8D838E819F8101968E8377
S11357909F838885882F90E0880F991F880F991F11
S11357A09C01295F3F4F8E819F81821793071CF3D1
S11357B08885882F90E0880F991F880F991F079676
S11357C02D8123708754944CFC0120838885882F75
S11357D090E00296880F991F880F991F2D812695B6
S11357E0269523708754944CFC0120838885882F48
S11357F090E0880F991F880F991F09962D81229593
S11358002F7023708754944CFC0120838885882F43
S113581090E0880F991F880F991F0A962D81229571
S11358202695269523708754944CFC012083000010
S11358306296CDBFDEBFDF91CF910895CF92DF9204
S1135840EF92FF920F93CF93DF9300D01F92CDB7C7
S1135850DEB78B839C8306C063E070E080E090E059
S11358600E9438128091AD3A9091AE3A892BA1F3FF
S11358708091AD3A9091AE3ACC24CA94DC2C760156
S113588001E020E041E050E060E070E00E94FB02B3
S113589019821A8289819A81892B59F48091B93BA2
S11358A00E944F2A0E94852A84E090E089839A838B
S11358B005C089819A81019789839A830E94F32A7A
S11358C06AE070E080E090E00E943812E3CFCF936A
S11358D0DF9300D01F92CDB7DEB78B839C831982F0
S11358E01A8277C080912A3A90912B3A8754944C2B
S11358F0FC018081882F90E08130910519F182307C
S113590091051CF4892B41F05FC08230910581F12F
S1135910039709F443C058C089819A81880F991F5D
S11359202B813C81820F931F29813A81220F331FDF
S11359302A503F4DF90120813181385FFC012083D9
S1135940318342C089819A81880F991F2B813C81C0
S1135950820F931F29813A81220F331F2A5C3E4D07
S1135960F90120813181385FFC01208331832CC00F
S113597089819A81880F991F2B813C81820F931F03
S113598029813A81220F331F2A583E4DF901208183
S11359903181385FFC012083318316C089819A816B
S11359A0880F991F2B813C81820F931F29813A8193
S11359B0220F331F2A543E4DF90120813181385F73
S11359C0FC0120833183000089819A8101968983B7
S11359D09A8389819A81809708F484CF80912A3AA6
S11359E090912B3A439754F480912A3A90912B3A10
S11359F0019680932A3A90932B3A04C010922A3A43
S1135A0010922B3A00002496CDBFDEBFDF91CF91D8
S1135A1008951F920F9200903F000F92112400905E
S1135A203B000F922F933F934F935F936F937F931A
S1135A308F939F93AF93BF93EF93FF93CF93DF9392
S1135A40CDB7DEB780E091E020E031E0F9012189B3
S1135A502061FC01218B8CE29AE30E94672C0000F8
S1135A60DF91CF91FF91EF91BF91AF919F918F9172
S1135A707F916F915F914F913F912F910F90009281
S1135A803B000F9000923F000F901F9018951F92BB
S1135A900F9200903F000F92112400903B000F9250
S1135AA02F933F934F935F936F937F938F939F9322
S1135AB0AF93BF93EF93FF93CF93DF93CDB7DEB74D
S1135AC080E091E020E031E0F90121A12061FC01B6
S1135AD021A38CE69AE30E94672C0000DF91CF910A
S1135AE0FF91EF91BF91AF919F918F917F916F91B2
S1135AF05F914F913F912F910F9000923B000F9037
S1135B0000923F000F901F901895CF93DF93CDB76D
S1135B10DEB780E092E021E0FC01208380E092E0A7
S1135B20FC01118280E092E020E1FC01228380E00C
S1135B3092E023E0FC01248380E092E029E3FC016D
S1135B40238380E092E021E0FC0120A380E092E046
S1135B5025E5FC0121A380E092E0FC0112A20000F3
S1135B60DF91CF910895CF93DF93CDB7DEB780E275
S1135B7093E024E0FC01208380E293E021E0FC0137
S1135B80218380E293E0FC01128280E293E0FC0135
S1135B90138280E293E020E233E0F9012081216066
S1135BA0FC01208380E296E024E0FC0121830000D4
S1135BB0DF91CF910895CF93DF93CDB7DEB761E046
S1135BC080E099E00E94020263E080E099E00E9494
S1135BD03A0280E099E028EE33E0FC0126A337A3E3
S1135BE080E891E020EDFC0120830000DF91CF915B
S1135BF00895CF93DF93CDB7DEB761E080E499E0F9
S1135C000E941E0263E080E499E00E94560280E450
S1135C1099E028EE33E0FC0126A337A380E891E065
S1135C2028EDFC0127830000DF91CF910895CF93E5
S1135C30DF93CDB7DEB78091AD3A9091AE3A892B20
S1135C40F9F40E94D8028093AD3A9093AE3A80E082
S1135C5091E0FC01108280E091E020E4FC012083CB
S1135C60000080E091E0FC018081882F90E0807446
S1135C709927892BB1F780E091E02CE8FC0120837F
S1135C800000DF91CF910895CF93DF93CDB7DEB7B6
S1135C900E94172E80E091E0FC01168A80E091E0DA
S1135CA020E031E0F90121892160FC01218B80E0B1
S1135CB091E025E2FC01208B80E091E029EDFC01DC
S1135CC0228B80E091E025E2FC01238B80E091E0CF
S1135CD020E430E0FC01248B358B80E091E02CE261
S1135CE03AE3FC01208F80E091E02CE23AE3232F99
